{
	"_format": "hh-sol-artifact-1",
	"contractName": "IkiminaSystem",
	"sourceName": "contracts/IkiminaSystem.sol",
	"abi": [
		{
			"inputs": [],
			"stateMutability": "nonpayable",
			"type": "constructor"
		},
		{
			"anonymous": false,
			"inputs": [
				{
					"indexed": false,
					"internalType": "address",
					"name": "newAdmin",
					"type": "address"
				}
			],
			"name": "AdminAdded",
			"type": "event"
		},
		{
			"anonymous": false,
			"inputs": [
				{
					"indexed": false,
					"internalType": "uint256",
					"name": "roundId",
					"type": "uint256"
				},
				{
					"indexed": false,
					"internalType": "address",
					"name": "memberAddress",
					"type": "address"
				},
				{
					"indexed": false,
					"internalType": "uint256",
					"name": "amount",
					"type": "uint256"
				}
			],
			"name": "ContributionMade",
			"type": "event"
		},
		{
			"anonymous": false,
			"inputs": [
				{
					"indexed": false,
					"internalType": "address",
					"name": "memberAddress",
					"type": "address"
				},
				{
					"indexed": false,
					"internalType": "string",
					"name": "fullName",
					"type": "string"
				}
			],
			"name": "MemberRegistered",
			"type": "event"
		},
		{
			"anonymous": false,
			"inputs": [
				{
					"indexed": false,
					"internalType": "address",
					"name": "memberAddress",
					"type": "address"
				}
			],
			"name": "MemberVerified",
			"type": "event"
		},
		{
			"anonymous": false,
			"inputs": [
				{
					"indexed": false,
					"internalType": "uint256",
					"name": "roundId",
					"type": "uint256"
				},
				{
					"indexed": false,
					"internalType": "address",
					"name": "memberAddress",
					"type": "address"
				}
			],
			"name": "PayoutIssued",
			"type": "event"
		},
		{
			"anonymous": false,
			"inputs": [
				{
					"indexed": false,
					"internalType": "uint256",
					"name": "roundId",
					"type": "uint256"
				},
				{
					"indexed": false,
					"internalType": "string",
					"name": "description",
					"type": "string"
				}
			],
			"name": "RoundStarted",
			"type": "event"
		},
		{
			"inputs": [
				{
					"internalType": "address",
					"name": "_newAdmin",
					"type": "address"
				}
			],
			"name": "addAdmin",
			"outputs": [],
			"stateMutability": "nonpayable",
			"type": "function"
		},
		{
			"inputs": [
				{
					"internalType": "uint256",
					"name": "_roundId",
					"type": "uint256"
				}
			],
			"name": "contribute",
			"outputs": [],
			"stateMutability": "payable",
			"type": "function"
		},
		{
			"inputs": [],
			"name": "getContractBalance",
			"outputs": [
				{
					"internalType": "uint256",
					"name": "",
					"type": "uint256"
				}
			],
			"stateMutability": "view",
			"type": "function"
		},
		{
			"inputs": [],
			"name": "getRegisteredMembers",
			"outputs": [
				{
					"internalType": "address[]",
					"name": "",
					"type": "address[]"
				}
			],
			"stateMutability": "view",
			"type": "function"
		},
		{
			"inputs": [
				{
					"internalType": "address",
					"name": "",
					"type": "address"
				}
			],
			"name": "isAdmin",
			"outputs": [
				{
					"internalType": "bool",
					"name": "",
					"type": "bool"
				}
			],
			"stateMutability": "view",
			"type": "function"
		},
		{
			"inputs": [
				{
					"internalType": "uint256",
					"name": "_roundId",
					"type": "uint256"
				},
				{
					"internalType": "address payable",
					"name": "_memberAddress",
					"type": "address"
				}
			],
			"name": "issuePayout",
			"outputs": [],
			"stateMutability": "nonpayable",
			"type": "function"
		},
		{
			"inputs": [],
			"name": "manager",
			"outputs": [
				{
					"internalType": "address",
					"name": "",
					"type": "address"
				}
			],
			"stateMutability": "view",
			"type": "function"
		},
		{
			"inputs": [
				{
					"internalType": "address",
					"name": "",
					"type": "address"
				}
			],
			"name": "members",
			"outputs": [
				{
					"internalType": "string",
					"name": "fullName",
					"type": "string"
				},
				{
					"internalType": "string",
					"name": "phoneNumber",
					"type": "string"
				},
				{
					"internalType": "uint256",
					"name": "contributionAmount",
					"type": "uint256"
				},
				{
					"internalType": "bool",
					"name": "isVerified",
					"type": "bool"
				},
				{
					"internalType": "bool",
					"name": "hasReceivedPayout",
					"type": "bool"
				}
			],
			"stateMutability": "view",
			"type": "function"
		},
		{
			"inputs": [],
			"name": "nextRoundId",
			"outputs": [
				{
					"internalType": "uint256",
					"name": "",
					"type": "uint256"
				}
			],
			"stateMutability": "view",
			"type": "function"
		},
		{
			"inputs": [
				{
					"internalType": "address",
					"name": "",
					"type": "address"
				}
			],
			"name": "payouts",
			"outputs": [
				{
					"internalType": "uint256",
					"name": "roundId",
					"type": "uint256"
				},
				{
					"internalType": "address",
					"name": "memberAddress",
					"type": "address"
				},
				{
					"internalType": "bool",
					"name": "isPaid",
					"type": "bool"
				}
			],
			"stateMutability": "view",
			"type": "function"
		},
		{
			"inputs": [
				{
					"internalType": "string",
					"name": "_fullName",
					"type": "string"
				},
				{
					"internalType": "string",
					"name": "_phoneNumber",
					"type": "string"
				},
				{
					"internalType": "uint256",
					"name": "_contributionAmount",
					"type": "uint256"
				}
			],
			"name": "registerMember",
			"outputs": [],
			"stateMutability": "nonpayable",
			"type": "function"
		},
		{
			"inputs": [
				{
					"internalType": "uint256",
					"name": "",
					"type": "uint256"
				}
			],
			"name": "registeredMembers",
			"outputs": [
				{
					"internalType": "address",
					"name": "",
					"type": "address"
				}
			],
			"stateMutability": "view",
			"type": "function"
		},
		{
			"inputs": [
				{
					"internalType": "uint256",
					"name": "",
					"type": "uint256"
				}
			],
			"name": "rounds",
			"outputs": [
				{
					"internalType": "uint256",
					"name": "roundId",
					"type": "uint256"
				},
				{
					"internalType": "string",
					"name": "description",
					"type": "string"
				},
				{
					"internalType": "uint256",
					"name": "totalContribution",
					"type": "uint256"
				},
				{
					"internalType": "bool",
					"name": "isActive",
					"type": "bool"
				}
			],
			"stateMutability": "view",
			"type": "function"
		},
		{
			"inputs": [
				{
					"internalType": "string",
					"name": "_description",
					"type": "string"
				}
			],
			"name": "startRound",
			"outputs": [],
			"stateMutability": "nonpayable",
			"type": "function"
		},
		{
			"inputs": [
				{
					"internalType": "address",
					"name": "_memberAddress",
					"type": "address"
				}
			],
			"name": "verifyMember",
			"outputs": [],
			"stateMutability": "nonpayable",
			"type": "function"
		},
		{
			"inputs": [
				{
					"internalType": "address",
					"name": "_memberAddress",
					"type": "address"
				}
			],
			"name": "viewMember",
			"outputs": [
				{
					"internalType": "string",
					"name": "",
					"type": "string"
				},
				{
					"internalType": "string",
					"name": "",
					"type": "string"
				},
				{
					"internalType": "uint256",
					"name": "",
					"type": "uint256"
				},
				{
					"internalType": "bool",
					"name": "",
					"type": "bool"
				},
				{
					"internalType": "bool",
					"name": "",
					"type": "bool"
				}
			],
			"stateMutability": "view",
			"type": "function"
		},
		{
			"inputs": [
				{
					"internalType": "uint256",
					"name": "_roundId",
					"type": "uint256"
				}
			],
			"name": "viewRound",
			"outputs": [
				{
					"internalType": "string",
					"name": "",
					"type": "string"
				},
				{
					"internalType": "uint256",
					"name": "",
					"type": "uint256"
				},
				{
					"internalType": "bool",
					"name": "",
					"type": "bool"
				}
			],
			"stateMutability": "view",
			"type": "function"
		}
	],
	"bytecode": "0x60806040526001600655348015601457600080fd5b50336000806101000a81548173ffffffffffffffffffffffffffffffffffffffff021916908373ffffffffffffffffffffffffffffffffffffffff16021790555060018060008060009054906101000a900473ffffffffffffffffffffffffffffffffffffffff1673ffffffffffffffffffffffffffffffffffffffff1673ffffffffffffffffffffffffffffffffffffffff16815260200190815260200160002060006101000a81548160ff0219169083151502179055506129dc806100dc6000396000f3fe6080604052600436106100fe5760003560e01c806365bcfbe7116100955780638c65c81f116100645780638c65c81f14610367578063a92b3261146103a7578063af3977a0146103d0578063c1cbbca71461040d578063eae25d4214610429576100fe565b806365bcfbe7146102ab5780636f9fb98a146102ea578063704802751461031557806375886fb71461033e576100fe565b806324d7806c116100d157806324d7806c146101d75780633d7371d7146102145780634002eda614610255578063481c6a7514610280576100fe565b806308ae4b0c146101035780631ae09526146101445780631e65e7f61461016f57806323df21c214610198575b600080fd5b34801561010f57600080fd5b5061012a600480360381019061012591906118a5565b610452565b60405161013b959493929190611996565b60405180910390f35b34801561015057600080fd5b506101596105b2565b6040516101669190611ab5565b60405180910390f35b34801561017b57600080fd5b5061019660048036038101906101919190611c0c565b610640565b005b3480156101a457600080fd5b506101bf60048036038101906101ba9190611c81565b6107ab565b6040516101ce93929190611cae565b60405180910390f35b3480156101e357600080fd5b506101fe60048036038101906101f991906118a5565b6108b0565b60405161020b9190611cec565b60405180910390f35b34801561022057600080fd5b5061023b600480360381019061023691906118a5565b6108d0565b60405161024c959493929190611996565b60405180910390f35b34801561026157600080fd5b5061026a610ab6565b6040516102779190611d07565b60405180910390f35b34801561028c57600080fd5b50610295610abc565b6040516102a29190611d31565b60405180910390f35b3480156102b757600080fd5b506102d260048036038101906102cd91906118a5565b610ae0565b6040516102e193929190611d4c565b60405180910390f35b3480156102f657600080fd5b506102ff610b37565b60405161030c9190611d07565b60405180910390f35b34801561032157600080fd5b5061033c600480360381019061033791906118a5565b610b3f565b005b34801561034a57600080fd5b5061036560048036038101906103609190611d83565b610c3f565b005b34801561037357600080fd5b5061038e60048036038101906103899190611c81565b610f21565b60405161039e9493929190611e0e565b60405180910390f35b3480156103b357600080fd5b506103ce60048036038101906103c99190611e98565b610fe6565b005b3480156103dc57600080fd5b506103f760048036038101906103f29190611c81565b611448565b6040516104049190611d31565b60405180910390f35b61042760048036038101906104229190611c81565b611487565b005b34801561043557600080fd5b50610450600480360381019061044b91906118a5565b611681565b005b600260205280600052604060002060009150905080600001805461047590611f07565b80601f01602080910402602001604051908101604052809291908181526020018280546104a190611f07565b80156104ee5780601f106104c3576101008083540402835291602001916104ee565b820191906000526020600020905b8154815290600101906020018083116104d157829003601f168201915b50505050509080600101805461050390611f07565b80601f016020809104026020016040519081016040528092919081815260200182805461052f90611f07565b801561057c5780601f106105515761010080835404028352916020019161057c565b820191906000526020600020905b81548152906001019060200180831161055f57829003601f168201915b5050505050908060020154908060030160009054906101000a900460ff16908060030160019054906101000a900460ff16905085565b6060600580548060200260200160405190810160405280929190818152602001828054801561063657602002820191906000526020600020905b8160009054906101000a900473ffffffffffffffffffffffffffffffffffffffff1673ffffffffffffffffffffffffffffffffffffffff16815260200190600101908083116105ec575b5050505050905090565b600160003373ffffffffffffffffffffffffffffffffffffffff1673ffffffffffffffffffffffffffffffffffffffff16815260200190815260200160002060009054906101000a900460ff166106cc576040517f08c379a00000000000000000000000000000000000000000000000000000000081526004016106c390611faa565b60405180910390fd5b6040518060800160405280600654815260200182815260200160008152602001600115158152506003600060065481526020019081526020016000206000820151816000015560208201518160010190816107279190612176565b506040820151816002015560608201518160030160006101000a81548160ff0219169083151502179055509050507fd2e502e39a194cfd3f9bec599905238739d14dec11ff7f2db47eb6ff290e03e960065482604051610788929190612248565b60405180910390a1600660008154809291906107a3906122a7565b919050555050565b6060600080600060036000868152602001908152602001600020604051806080016040529081600082015481526020016001820180546107ea90611f07565b80601f016020809104026020016040519081016040528092919081815260200182805461081690611f07565b80156108635780601f1061083857610100808354040283529160200191610863565b820191906000526020600020905b81548152906001019060200180831161084657829003601f168201915b50505050508152602001600282015481526020016003820160009054906101000a900460ff1615151515815250509050806020015181604001518260600151935093509350509193909250565b60016020528060005260406000206000915054906101000a900460ff1681565b606080600080600080600260008873ffffffffffffffffffffffffffffffffffffffff1673ffffffffffffffffffffffffffffffffffffffff1681526020019081526020016000206040518060a001604052908160008201805461093390611f07565b80601f016020809104026020016040519081016040528092919081815260200182805461095f90611f07565b80156109ac5780601f10610981576101008083540402835291602001916109ac565b820191906000526020600020905b81548152906001019060200180831161098f57829003601f168201915b505050505081526020016001820180546109c590611f07565b80601f01602080910402602001604051908101604052809291908181526020018280546109f190611f07565b8015610a3e5780601f10610a1357610100808354040283529160200191610a3e565b820191906000526020600020905b815481529060010190602001808311610a2157829003601f168201915b50505050508152602001600282015481526020016003820160009054906101000a900460ff161515151581526020016003820160019054906101000a900460ff161515151581525050905080600001518160200151826040015183606001518460800151955095509550955095505091939590929450565b60065481565b60008054906101000a900473ffffffffffffffffffffffffffffffffffffffff1681565b60046020528060005260406000206000915090508060000154908060010160009054906101000a900473ffffffffffffffffffffffffffffffffffffffff16908060010160149054906101000a900460ff16905083565b600047905090565b600073ffffffffffffffffffffffffffffffffffffffff168173ffffffffffffffffffffffffffffffffffffffff1603610bae576040517f08c379a0000000000000000000000000000000000000000000000000000000008152600401610ba59061233b565b60405180910390fd5b60018060008373ffffffffffffffffffffffffffffffffffffffff1673ffffffffffffffffffffffffffffffffffffffff16815260200190815260200160002060006101000a81548160ff0219169083151502179055507f44d6d25963f097ad14f29f06854a01f575648a1ef82f30e562ccd3889717e33981604051610c349190611d31565b60405180910390a150565b6000835111610c83576040517f08c379a0000000000000000000000000000000000000000000000000000000008152600401610c7a906123a7565b60405180910390fd5b6000825111610cc7576040517f08c379a0000000000000000000000000000000000000000000000000000000008152600401610cbe90612413565b60405180910390fd5b60008111610d0a576040517f08c379a0000000000000000000000000000000000000000000000000000000008152600401610d01906124a5565b60405180910390fd5b6000600260003373ffffffffffffffffffffffffffffffffffffffff1673ffffffffffffffffffffffffffffffffffffffff1681526020019081526020016000206000018054610d5990611f07565b905014610d9b576040517f08c379a0000000000000000000000000000000000000000000000000000000008152600401610d9290612511565b60405180910390fd5b6040518060a0016040528084815260200183815260200182815260200160001515815260200160001515815250600260003373ffffffffffffffffffffffffffffffffffffffff1673ffffffffffffffffffffffffffffffffffffffff1681526020019081526020016000206000820151816000019081610e1c9190612176565b506020820151816001019081610e329190612176565b506040820151816002015560608201518160030160006101000a81548160ff02191690831515021790555060808201518160030160016101000a81548160ff0219169083151502179055509050506005339080600181540180825580915050600190039060005260206000200160009091909190916101000a81548173ffffffffffffffffffffffffffffffffffffffff021916908373ffffffffffffffffffffffffffffffffffffffff1602179055507f3b09349069a59bcde8c2609afc86c80b77c81085ac8cd8662981621f7ea3574b3384604051610f14929190612531565b60405180910390a1505050565b6003602052806000526040600020600091509050806000015490806001018054610f4a90611f07565b80601f0160208091040260200160405190810160405280929190818152602001828054610f7690611f07565b8015610fc35780601f10610f9857610100808354040283529160200191610fc3565b820191906000526020600020905b815481529060010190602001808311610fa657829003601f168201915b5050505050908060020154908060030160009054906101000a900460ff16905084565b600160003373ffffffffffffffffffffffffffffffffffffffff1673ffffffffffffffffffffffffffffffffffffffff16815260200190815260200160002060009054906101000a900460ff16611072576040517f08c379a000000000000000000000000000000000000000000000000000000000815260040161106990611faa565b60405180910390fd5b6003600083815260200190815260200160002060030160009054906101000a900460ff166110d5576040517f08c379a00000000000000000000000000000000000000000000000000000000081526004016110cc906125ad565b60405180910390fd5b600260008273ffffffffffffffffffffffffffffffffffffffff1673ffffffffffffffffffffffffffffffffffffffff16815260200190815260200160002060030160009054906101000a900460ff16611164576040517f08c379a000000000000000000000000000000000000000000000000000000000815260040161115b90612619565b60405180910390fd5b600260008273ffffffffffffffffffffffffffffffffffffffff1673ffffffffffffffffffffffffffffffffffffffff16815260200190815260200160002060030160019054906101000a900460ff16156111f4576040517f08c379a00000000000000000000000000000000000000000000000000000000081526004016111eb90612685565b60405180910390fd5b60405180606001604052808381526020018273ffffffffffffffffffffffffffffffffffffffff16815260200160011515815250600460008373ffffffffffffffffffffffffffffffffffffffff1673ffffffffffffffffffffffffffffffffffffffff1681526020019081526020016000206000820151816000015560208201518160010160006101000a81548173ffffffffffffffffffffffffffffffffffffffff021916908373ffffffffffffffffffffffffffffffffffffffff16021790555060408201518160010160146101000a81548160ff02191690831515021790555090505060006003600084815260200190815260200160002060020154905080471015611339576040517f08c379a0000000000000000000000000000000000000000000000000000000008152600401611330906126f1565b60405180910390fd5b8173ffffffffffffffffffffffffffffffffffffffff166108fc829081150290604051600060405180830381858888f1935050505015801561137f573d6000803e3d6000fd5b506001600260008473ffffffffffffffffffffffffffffffffffffffff1673ffffffffffffffffffffffffffffffffffffffff16815260200190815260200160002060030160016101000a81548160ff02191690831515021790555060006003600085815260200190815260200160002060030160006101000a81548160ff0219169083151502179055507faadb1e535ded40a0043ffd7c4dd15f0dca551b25b79dcfe6bb36ab946a5b5c13838360405161143b929190612766565b60405180910390a1505050565b6005818154811061145857600080fd5b906000526020600020016000915054906101000a900473ffffffffffffffffffffffffffffffffffffffff1681565b600260003373ffffffffffffffffffffffffffffffffffffffff1673ffffffffffffffffffffffffffffffffffffffff16815260200190815260200160002060030160009054906101000a900460ff16611516576040517f08c379a000000000000000000000000000000000000000000000000000000000815260040161150d90612801565b60405180910390fd5b6003600082815260200190815260200160002060030160009054906101000a900460ff16611579576040517f08c379a0000000000000000000000000000000000000000000000000000000008152600401611570906125ad565b60405180910390fd5b6000670de0b6b3a7640000600260003373ffffffffffffffffffffffffffffffffffffffff1673ffffffffffffffffffffffffffffffffffffffff168152602001908152602001600020600201546115d19190612821565b9050803414611615576040517f08c379a000000000000000000000000000000000000000000000000000000000815260040161160c906128af565b60405180910390fd5b3460036000848152602001908152602001600020600201600082825461163b91906128cf565b925050819055507f0a4a91237423e0a1766a761c7cb029311d8b95d6b1b81db1b949a70c98b4e08e82333460405161167593929190612903565b60405180910390a15050565b600160003373ffffffffffffffffffffffffffffffffffffffff1673ffffffffffffffffffffffffffffffffffffffff16815260200190815260200160002060009054906101000a900460ff1661170d576040517f08c379a000000000000000000000000000000000000000000000000000000000815260040161170490611faa565b60405180910390fd5b6000600260008373ffffffffffffffffffffffffffffffffffffffff1673ffffffffffffffffffffffffffffffffffffffff168152602001908152602001600020600001805461175c90611f07565b90500361179e576040517f08c379a000000000000000000000000000000000000000000000000000000000815260040161179590612986565b60405180910390fd5b6001600260008373ffffffffffffffffffffffffffffffffffffffff1673ffffffffffffffffffffffffffffffffffffffff16815260200190815260200160002060030160006101000a81548160ff0219169083151502179055507fe9728d5d2e2da57ffaf3e5267ed579f306d06e34cf58508a23d7dd661ab6838e816040516118289190611d31565b60405180910390a150565b6000604051905090565b600080fd5b600080fd5b600073ffffffffffffffffffffffffffffffffffffffff82169050919050565b600061187282611847565b9050919050565b61188281611867565b811461188d57600080fd5b50565b60008135905061189f81611879565b92915050565b6000602082840312156118bb576118ba61183d565b5b60006118c984828501611890565b91505092915050565b600081519050919050565b600082825260208201905092915050565b60005b8381101561190c5780820151818401526020810190506118f1565b60008484015250505050565b6000601f19601f8301169050919050565b6000611934826118d2565b61193e81856118dd565b935061194e8185602086016118ee565b61195781611918565b840191505092915050565b6000819050919050565b61197581611962565b82525050565b60008115159050919050565b6119908161197b565b82525050565b600060a08201905081810360008301526119b08188611929565b905081810360208301526119c48187611929565b90506119d3604083018661196c565b6119e06060830185611987565b6119ed6080830184611987565b9695505050505050565b600081519050919050565b600082825260208201905092915050565b6000819050602082019050919050565b611a2c81611867565b82525050565b6000611a3e8383611a23565b60208301905092915050565b6000602082019050919050565b6000611a62826119f7565b611a6c8185611a02565b9350611a7783611a13565b8060005b83811015611aa8578151611a8f8882611a32565b9750611a9a83611a4a565b925050600181019050611a7b565b5085935050505092915050565b60006020820190508181036000830152611acf8184611a57565b905092915050565b600080fd5b600080fd5b7f4e487b7100000000000000000000000000000000000000000000000000000000600052604160045260246000fd5b611b1982611918565b810181811067ffffffffffffffff82111715611b3857611b37611ae1565b5b80604052505050565b6000611b4b611833565b9050611b578282611b10565b919050565b600067ffffffffffffffff821115611b7757611b76611ae1565b5b611b8082611918565b9050602081019050919050565b82818337600083830152505050565b6000611baf611baa84611b5c565b611b41565b905082815260208101848484011115611bcb57611bca611adc565b5b611bd6848285611b8d565b509392505050565b600082601f830112611bf357611bf2611ad7565b5b8135611c03848260208601611b9c565b91505092915050565b600060208284031215611c2257611c2161183d565b5b600082013567ffffffffffffffff811115611c4057611c3f611842565b5b611c4c84828501611bde565b91505092915050565b611c5e81611962565b8114611c6957600080fd5b50565b600081359050611c7b81611c55565b92915050565b600060208284031215611c9757611c9661183d565b5b6000611ca584828501611c6c565b91505092915050565b60006060820190508181036000830152611cc88186611929565b9050611cd7602083018561196c565b611ce46040830184611987565b949350505050565b6000602082019050611d016000830184611987565b92915050565b6000602082019050611d1c600083018461196c565b92915050565b611d2b81611867565b82525050565b6000602082019050611d466000830184611d22565b92915050565b6000606082019050611d61600083018661196c565b611d6e6020830185611d22565b611d7b6040830184611987565b949350505050565b600080600060608486031215611d9c57611d9b61183d565b5b600084013567ffffffffffffffff811115611dba57611db9611842565b5b611dc686828701611bde565b935050602084013567ffffffffffffffff811115611de757611de6611842565b5b611df386828701611bde565b9250506040611e0486828701611c6c565b9150509250925092565b6000608082019050611e23600083018761196c565b8181036020830152611e358186611929565b9050611e44604083018561196c565b611e516060830184611987565b95945050505050565b6000611e6582611847565b9050919050565b611e7581611e5a565b8114611e8057600080fd5b50565b600081359050611e9281611e6c565b92915050565b60008060408385031215611eaf57611eae61183d565b5b6000611ebd85828601611c6c565b9250506020611ece85828601611e83565b9150509250929050565b7f4e487b7100000000000000000000000000000000000000000000000000000000600052602260045260246000fd5b60006002820490506001821680611f1f57607f821691505b602082108103611f3257611f31611ed8565b5b50919050565b7f4f6e6c792061646d696e2063616e20706572666f726d2074686973206163746960008201527f6f6e000000000000000000000000000000000000000000000000000000000000602082015250565b6000611f946022836118dd565b9150611f9f82611f38565b604082019050919050565b60006020820190508181036000830152611fc381611f87565b9050919050565b60008190508160005260206000209050919050565b60006020601f8301049050919050565b600082821b905092915050565b60006008830261202c7fffffffffffffffffffffffffffffffffffffffffffffffffffffffffffffffff82611fef565b6120368683611fef565b95508019841693508086168417925050509392505050565b6000819050919050565b600061207361206e61206984611962565b61204e565b611962565b9050919050565b6000819050919050565b61208d83612058565b6120a16120998261207a565b848454611ffc565b825550505050565b600090565b6120b66120a9565b6120c1818484612084565b505050565b5b818110156120e5576120da6000826120ae565b6001810190506120c7565b5050565b601f82111561212a576120fb81611fca565b61210484611fdf565b81016020851015612113578190505b61212761211f85611fdf565b8301826120c6565b50505b505050565b600082821c905092915050565b600061214d6000198460080261212f565b1980831691505092915050565b6000612166838361213c565b9150826002028217905092915050565b61217f826118d2565b67ffffffffffffffff81111561219857612197611ae1565b5b6121a28254611f07565b6121ad8282856120e9565b600060209050601f8311600181146121e057600084156121ce578287015190505b6121d8858261215a565b865550612240565b601f1984166121ee86611fca565b60005b82811015612216578489015182556001820191506020850194506020810190506121f1565b86831015612233578489015161222f601f89168261213c565b8355505b6001600288020188555050505b505050505050565b600060408201905061225d600083018561196c565b818103602083015261226f8184611929565b90509392505050565b7f4e487b7100000000000000000000000000000000000000000000000000000000600052601160045260246000fd5b60006122b282611962565b91507fffffffffffffffffffffffffffffffffffffffffffffffffffffffffffffffff82036122e4576122e3612278565b5b600182019050919050565b7f496e76616c696420616464726573730000000000000000000000000000000000600082015250565b6000612325600f836118dd565b9150612330826122ef565b602082019050919050565b6000602082019050818103600083015261235481612318565b9050919050565b7f46756c6c206e616d652069732072657175697265640000000000000000000000600082015250565b60006123916015836118dd565b915061239c8261235b565b602082019050919050565b600060208201905081810360008301526123c081612384565b9050919050565b7f50686f6e65206e756d6265722069732072657175697265640000000000000000600082015250565b60006123fd6018836118dd565b9150612408826123c7565b602082019050919050565b6000602082019050818103600083015261242c816123f0565b9050919050565b7f436f6e747269627574696f6e206d75737420626520677265617465722074686160008201527f6e20300000000000000000000000000000000000000000000000000000000000602082015250565b600061248f6023836118dd565b915061249a82612433565b604082019050919050565b600060208201905081810360008301526124be81612482565b9050919050565b7f416c726561647920726567697374657265640000000000000000000000000000600082015250565b60006124fb6012836118dd565b9150612506826124c5565b602082019050919050565b6000602082019050818103600083015261252a816124ee565b9050919050565b60006040820190506125466000830185611d22565b81810360208301526125588184611929565b90509392505050565b7f526f756e64206e6f742061637469766500000000000000000000000000000000600082015250565b60006125976010836118dd565b91506125a282612561565b602082019050919050565b600060208201905081810360008301526125c68161258a565b9050919050565b7f4d656d626572206e6f7420766572696669656400000000000000000000000000600082015250565b60006126036013836118dd565b915061260e826125cd565b602082019050919050565b60006020820190508181036000830152612632816125f6565b9050919050565b7f416c7265616479207265636569766564207061796f7574000000000000000000600082015250565b600061266f6017836118dd565b915061267a82612639565b602082019050919050565b6000602082019050818103600083015261269e81612662565b9050919050565b7f4e6f7420656e6f75676820636f6e74726163742062616c616e63650000000000600082015250565b60006126db601b836118dd565b91506126e6826126a5565b602082019050919050565b6000602082019050818103600083015261270a816126ce565b9050919050565b600061272c61272761272284611847565b61204e565b611847565b9050919050565b600061273e82612711565b9050919050565b600061275082612733565b9050919050565b61276081612745565b82525050565b600060408201905061277b600083018561196c565b6127886020830184612757565b9392505050565b7f4f6e6c79207665726966696564206d656d626572732063616e20706572666f7260008201527f6d207468697320616374696f6e00000000000000000000000000000000000000602082015250565b60006127eb602d836118dd565b91506127f68261278f565b604082019050919050565b6000602082019050818103600083015261281a816127de565b9050919050565b600061282c82611962565b915061283783611962565b925082820261284581611962565b9150828204841483151761285c5761285b612278565b5b5092915050565b7f496e636f727265637420636f6e747269627574696f6e20616d6f756e74000000600082015250565b6000612899601d836118dd565b91506128a482612863565b602082019050919050565b600060208201905081810360008301526128c88161288c565b9050919050565b60006128da82611962565b91506128e583611962565b92508282019050808211156128fd576128fc612278565b5b92915050565b6000606082019050612918600083018661196c565b6129256020830185611d22565b612932604083018461196c565b949350505050565b7f4d656d626572206e6f7420666f756e6400000000000000000000000000000000600082015250565b60006129706010836118dd565b915061297b8261293a565b602082019050919050565b6000602082019050818103600083015261299f81612963565b905091905056fea2646970667358221220c4215639e631daf993cfd4264a95cddce4adaff20f7a3ed9c3ee1dcfbf27ff4964736f6c634300081c0033",
	"linkReferences": {},
	"deployedLinkReferences": {}
}